:100000000C94E3000C9414010C9414010C9414014E
:100010000C9414010C9414010C9414010C9414010C
:100020000C9414010C9414010C9414010C941401FC
:100030000C9414010C9414010C9414010C941401EC
:100040000C9414010C9414010C9414010C941401DC
:100050000C9414010C9414010C9414010C94B1062A
:100060000C9414010C940E030C94FE030C941401D4
:100070000C9414010C9414010C9414010C941401AC
:100080000C9414010C9414010C9414010C9414019C
:100090000C9442030C943D040C9414010C94140130
:1000A0000C9414010C9414010C9414010C9414017C
:1000B0000C9414010C9414010C9414010C9414016C
:1000C0000C9414010C9414010C9414010C947603F8
:1000D0000C947C040C9414010C94AA030C94BB049F
:1000E0000C94140101021020200808102040102058
:1000F00040800201020108040201010204081020EC
:1001000040808040201008040201800402018040E9
:100110002010080402010804020101020408102052
:1001200040800102040810204080050505050705F0
:1001300008080808020202020A0A08080404040463
:10014000010101010101010103030303030303038F
:10015000040707070C0C0C0C0C0C0C0C020202021E
:1001600006060606060606060B0B0B0B0B0B0B0B07
:1001700000002200250028002B002E003100340052
:1001800002010000050108010B010000210024000C
:1001900027002A002D003000330001010000040177
:1001A00007010A010C948A020C94B7020C946F02A6
:1001B0000C9487010C94AC020C94DD030C947B0529
:1001C0000C945D027B0511241FBECFEFD1E2DEBF90
:1001D000CDBF00E00CBF12E0A0E0B2E0EAE0FFE03B
:1001E00000E00BBF02C007900D92A031B107D9F714
:1001F00014E0A0E1B2E001C01D92A13CB107E1F71B
:1002000011E0C6ECD1E000E006C022970109FE0132
:100210000BBF0E947F07C43CD10780E00807A9F705
:100220000E947A010C9483070C94000040E855E288
:1002300060E070E086E792E00E94FA0440E052EC51
:1002400061E070E080E192E00E94FA0462E08EE0FA
:100250000E94410162E08FE00C94410180E192E054
:100260000E945D02892B61F080E192E00E948A0287
:1002700040E150E0682F86E792E00E944602EECF10
:100280000895CF93DF9390E0FC01EC51FF4F249150
:10029000FC01E65DFE4F8491882349F190E0880FD0
:1002A000991FFC01E657FE4FA591B49180599E4FCE
:1002B000FC01C591D4919FB7611108C0F8948C914D
:1002C000209582238C93888182230AC0623051F466
:1002D000F8948C91322F309583238C938881822BD4
:1002E000888304C0F8948C91822B8C939FBFDF91FC
:1002F000CF9108950E94FB060E941601CDEDD3E038
:100300000E942E012097E1F30E94DD03F9CFCF92E6
:10031000DF92EF92FF920F931F93CF93DF936C01C5
:100320007A01EB01E60EF71E00E010E0CE15DF05C6
:1003300061F06991D601ED91FC910190F081E02D81
:10034000C6011995080F191FF1CFC801DF91CF9190
:100350001F910F91FF90EF90DF90CF90089561155E
:10036000710581F0DB010D900020E9F7AD014150EE
:100370005109461B570BDC01ED91FC910280F38182
:10038000E02D199480E090E00895DC01ED91FC915E
:100390000190F081E02D19940F931F93CF93DF9379
:1003A000EC016DE00E94C5018C016AE0CE010E9463
:1003B000C501800F911FDF91CF911F910F9108957B
:1003C0008F929F92AF92BF92CF92DF92EF92FF9265
:1003D0000F931F93CF93DF93CDB7DEB7A1970FB6DF
:1003E000F894DEBF0FBECDBF7C01C42EE52FCB013C
:1003F000D22E19A221E02D1510F02AE0D22E8E0166
:100400000F5D1F4F8D2C912CA12CB12C6C2D7E2FAC
:10041000A50194010E945D078C2DD29E80191124A4
:10042000015011098A3014F4805D01C0895CF80123
:100430008083211531054105510521F0C22EE32F9E
:10044000CA01E4CFB801C7010E94AF01A1960FB65F
:10045000F894DEBF0FBECDBFDF91CF911F910F91FA
:10046000FF90EF90DF90CF90BF90AF909F908F90D4
:1004700008952115310541F4DC01ED91FC910190C5
:10048000F081E02D642F19940C94E0010F931F93D9
:10049000CF93DF93EC019A01462F50E060E070E0CB
:1004A0000E9439028C01CE010E94CC01800F911F65
:1004B000DF91CF911F910F910895FC01248535851F
:1004C000F901E05CFF4F80819181F901EE5BFF4F04
:1004D00020813181821B930B8F7399270895FC0132
:1004E00084859585FC01E05CFF4F40815181FC01D2
:1004F000EE5BFF4F208131814217530741F001909D
:10050000F081E02DE80FF91F808190E008958FEFD2
:100510009FEF0895FC0184859585FC01E05CFF4F09
:1005200040815181FC01EE5BFF4F208131814217F8
:10053000530779F0A081B181A80FB91F8C91208158
:1005400031812F5F3F4F2F7333273183208390E01A
:1005500008958FEF9FEF0895FC0181A1882329F072
:10056000A489B5898C9186FFFBCF11A20895CF9302
:10057000DF93FC0126853785D901A05CBF4F8D91A3
:100580009C91119701968F739927E901CE5BDF4FFC
:100590004881598184179507D9F30D90BC91A02DFE
:1005A000A20FB31F6C93A685B785A05CBF4F1196B1
:1005B0009C938E93A689B7892C9181E090E0078C5B
:1005C00002C0880F991F0A94E2F7282B2C9381E030
:1005D00081A30488F589E02D80818064808381E097
:1005E00090E0DF91CF910895FB01E05CFF4F208107
:1005F00031812F5F3F4F2F733327DB01AE5BBF4F3E
:100600004D915C912417350739F0A081B181A60F77
:10061000B71F8C9331832083089508951F920F9202
:100620000FB60F9211240BB60F922F933F934F9357
:100630005F936F937F938F939F93AF93BF93EF934A
:10064000FF938091C00082FD07C08091C60064E7DF
:1006500074E00E94F40202C08091C600FF91EF9105
:10066000BF91AF919F918F917F916F915F914F91CA
:100670003F912F910F900BBE0F900FBE0F901F90C8
:10068000189508951F920F920FB60F9211240BB672
:100690000F922F933F934F935F936F937F938F931B
:1006A0009F93AF93BF93EF93FF938091C80082FD18
:1006B00007C08091CE006CEE73E00E94F40202C08D
:1006C0008091CE00FF91EF91BF91AF919F918F915B
:1006D0007F916F915F914F913F912F910F900BBE42
:1006E0000F900FBE0F901F90189508951F920F92B4
:1006F0000FB60F9211240BB60F922F933F934F9387
:100700005F936F937F938F939F93AF93BF93EF9379
:10071000FF938091D00082FD07C08091D60064E6EF
:1007200073E00E94F40202C08091D600FF91EF9125
:10073000BF91AF919F918F917F916F915F914F91F9
:100740003F912F910F900BBE0F900FBE0F901F90F7
:10075000189508951F920F920FB60F9211240BB6A1
:100760000F922F933F934F935F936F937F938F934A
:100770009F93AF93BF93EF93FF938091300182FDDE
:1007800007C0809136016CED72E00E94F40202C055
:1007900080913601FF91EF91BF91AF919F918F9121
:1007A0007F916F915F914F913F912F910F900BBE71
:1007B0000F900FBE0F901F90189586E792E00E9451
:1007C0005D02892B11F00E940D0384E592E00E94E6
:1007D0005D02892B11F00E94410382E392E00E94A6
:1007E0005D02892B11F00E94750380E192E00E9466
:1007F0005D02892B11F00C94A90308951F920F92AA
:100800000FB60F9211240BB60F922F933F938F9335
:100810009F93EF93FF932091700430917104809126
:100820007204909173042817390731F48091C10044
:100830008F7D8093C10014C0E0917204F091730425
:10084000E05DFB4F208180917204909173040196CA
:100850008F73992790937304809372042093C6003A
:10086000FF91EF919F918F913F912F910F900BBE30
:100870000F900FBE0F901F9018951F920F920FB6FA
:100880000F9211240BB60F922F933F938F939F9348
:10089000EF93FF932091E8033091E9038091EA03FD
:1008A0009091EB032817390731F48091C9008F7DAF
:1008B0008093C90014C0E091EA03F091EB03E8557E
:1008C000FC4F20818091EA039091EB0301968F7396
:1008D00099279093EB038093EA032093CE00FF9136
:1008E000EF919F918F913F912F910F900BBE0F90A1
:1008F0000FBE0F901F9018951F920F920FB60F9278
:1009000011240BB60F922F933F938F939F93EF93E6
:10091000FF93209160033091610380916203909175
:1009200063032817390731F48091D1008F7D8093BC
:10093000D10014C0E0916203F0916303E05EFC4FCC
:100940002081809162039091630301968F739927B0
:1009500090936303809362032093D600FF91EF91FD
:100960009F918F913F912F910F900BBE0F900FBED3
:100970000F901F9018951F920F920FB60F9211248F
:100980000BB60F922F933F938F939F93EF93FF9309
:100990002091D8023091D9028091DA029091DB0245
:1009A0002817390731F4809131018F7D809331010F
:1009B00014C0E091DA02F091DB02E856FD4F20818D
:1009C0008091DA029091DB0201968F7399279093C0
:1009D000DB028093DA0220933601FF91EF919F9121
:1009E0008F913F912F910F900BBE0F900FBE0F90E4
:1009F0001F901895CF92DF92EF92FF92CF93DF93E3
:100A0000EC016A017B01411581EE58076105710512
:100A1000F9F0EC89FD8981E090E008A002C0880F20
:100A2000991F0A94E2F7808360E079E08DE390E01B
:100A3000A70196010E945D07215031094109510922
:100A40005695479537952795211580E1380798F0F9
:100A5000EC89FD89108260E874E88EE190E0A701DE
:100A600096010E945D0721503109410951095695AF
:100A7000479537952795E889F9893083EA89FB8975
:100A8000208319A2EE89FF89408181E090E09C01DA
:100A90000C8C02C0220F331F0A94E2F7422B4083D2
:100AA000EE89FF8940819C010D8C02C0220F331F0B
:100AB0000A94E2F7422B4083EE89FF8940819C0132
:100AC0000E8C02C0220F331F0A94E2F7422B4083A0
:100AD000EE89FF8920810F8C02C0880F991F0A942C
:100AE000E2F7809582238083DF91CF91FF90EF9092
:100AF000DF90CF900895CF931092790210927802F0
:100B000088EE93E0A0E0B0E080937A0290937B02BD
:100B1000A0937C02B0937D0224E032E03093770210
:100B20002093760244E754E050938302409382027C
:100B300040E354E0509385024093840245EC50E03A
:100B4000509387024093860244EC50E05093890210
:100B50004093880240EC50E050938B0240938A020D
:100B600041EC50E050938D0240938C0242EC50E0F7
:100B700050938F0240938E0246EC50E050939102C6
:100B800040939002C4E0C0939202F3E0F09393028A
:100B9000E7E0E093940275E07093950261E0609362
:100BA0009602109257021092560280935802909328
:100BB0005902A0935A02B0935B02309355022093DE
:100BC00054024CEE53E0509361024093600248EAB5
:100BD00053E050936302409362024DEC50E0509317
:100BE0006502409364024CEC50E0509367024093DE
:100BF000660248EC50E0509369024093680249EC69
:100C000050E050936B0240936A024AEC50E05093DC
:100C10006D0240936C024EEC50E050936F02409393
:100C20006E02C0937002F0937102E09372027093AF
:100C30007302609374021092350210923402809312
:100C4000360290933702A0933802B0933902309362
:100C500033022093320244E653E050933F02409324
:100C60003E0240E253E0509341024093400245ED82
:100C700050E0509343024093420244ED50E05093C1
:100C800045024093440240ED50E0509347024093A8
:100C9000460241ED50E0509349024093480242ED34
:100CA00050E050934B0240934A0246ED50E050937F
:100CB0004D0240934C02C0934E02F0934F02E093DA
:100CC00050027093510260935202109213021092DC
:100CD00012028093140290931502A0931602B0930F
:100CE000170230931102209310028CED92E0909342
:100CF0001D0280931C0288E992E090931F0280936A
:100D00001E0285E391E0909321028093200284E308
:100D100091E0909323028093220280E391E09093EC
:100D200025028093240281E391E09093270280932F
:100D3000260282E391E0909329028093280286E3C1
:100D400091E090932B0280932A02C0932C02F0939F
:100D50002D02E0932E0270932F0260933002CF9108
:100D600008951F920F920FB60F9211242F933F9365
:100D70008F939F93AF93BF938091B9049091BA04DE
:100D8000A091BB04B091BC043091B80423E0230FC0
:100D90002D3720F40196A11DB11D05C026E8230FB3
:100DA0000296A11DB11D2093B8048093B9049093BD
:100DB000BA04A093BB04B093BC048091BD0490918D
:100DC000BE04A091BF04B091C0040196A11DB11D45
:100DD0008093BD049093BE04A093BF04B093C0045D
:100DE000BF91AF919F918F913F912F910F900FBE27
:100DF0000F901F901895789484B5826084BD84B557
:100E0000816084BD85B5826085BD85B5816085BD05
:100E1000EEE6F0E0808181608083E1E8F0E010821E
:100E2000808182608083808181608083E0E8F0E05F
:100E3000808181608083E1EBF0E080818460808349
:100E4000E0EBF0E0808181608083E1E9F0E0808187
:100E500082608083808181608083E0E9F0E080812E
:100E600081608083E1EAF0E080818260808380811C
:100E700081608083E0EAF0E0808181608083E1E24C
:100E8000F1E0808182608083808181608083E0E204
:100E9000F1E0808181608083EAE7F0E08081846016
:100EA0008083808182608083808181608083808173
:100EB000806880831092C1000895A1E21A2EAA1BB7
:100EC000BB1BFD010DC0AA1FBB1FEE1FFF1FA217FA
:100ED000B307E407F50720F0A21BB30BE40BF50BF7
:100EE000661F771F881F991F1A9469F76095709580
:100EF000809590959B01AC01BD01CF0108950790AD
:0A0F0000F691E02D1994F894FFCF4C
:100F0A0000000000B70287015D028A026F02AC028C
:00000001FF
